:100000000C9456000C946B000C946B000C946B00D9
:100010000C946B000C946B000C946B000C946B00B4
:100020000C946B000C946B000C946B000C946B00A4
:100030000C946B000C946B000C946B000C946B0094
:100040000C946B000C946B000C946B000C946B0084
:100050000C946B000C946B000C946B000C946B0074
:100060000C946B000C946B000C946B000C946B0064
:100070000C946B000C946B000C946B000C946B0054
:100080000C946B000C946B000C946B000C946B0044
:100090000C946B000C946B000C946B000C946B0034
:1000A0000C946B000C946B000C946B0011241FBE1D
:1000B000CFEFDAE0DEBFCDBF15E0A0E0B1E0EAEBC4
:1000C000F5E002C005900D92AE33B107D9F70E945A
:1000D00033020C94DB020C94000043E021E030E09A
:1000E000E0914101F0914201808190914501B90177
:1000F00001C0660F9A95EAF7862B80835FEF69E669
:1001000078E1515060407040E1F700C00000E0919C
:100110004101F0914201508180914501B90102C035
:10012000660F771F8A95E2F7CB0180958523808340
:10013000E0914801F0914901808190914C01B90111
:1001400001C0660F9A95EAF7862B80837FEF89E6D8
:1001500098E1715080409040E1F700C00000E091CC
:100160004801F0914901508180914C01B90102C0D0
:10017000660F771F8A95E2F7CB01809585238083F0
:10018000415009F0ADCF089585E18093C50080E12D
:100190008093C600E1E6F0E080E880831082089555
:1001A000E0913F01F091400120813091450181E0D3
:1001B00090E0AC0101C0440F3A95EAF7242B20836C
:1001C000E0914601F0914701208130914C0101C03E
:1001D000880F3A95EAF7822B8083E0E0F1E021E096
:1001E00030E0A081B1814C918681B90102C0660FD7
:1001F000771F8A95E2F7CB01809584238C93A281A7
:10020000B3818C919681A90101C0440F9A95EAF7B8
:10021000842B8C93379671E0E332F70711F7E3E212
:10022000F1E02FE331E061E070E0A081B1818C91D9
:100230009681AB0101C0440F9A95EAF7842B8C9309
:1002400037962E173F0789F708952C9883FF1BC018
:100250005F9A82FF1AC05E9A81FF19C05D9A80FF83
:1002600018C05C9A85E08A95F1F700002C9A95E019
:100270009A95F1F700002C988FE891E00197F1F73B
:1002800000C0000008955F98E4CF5E98E5CF5D98C8
:10029000E6CF5C98E7CF549A559A569A579A269A81
:1002A000259A249A5C985D985E985F982E982D9870
:1002B0002C982FEF83EF91E0215080409040E1F7A0
:1002C00000C0000083E00E9425018FE19EE40197B9
:1002D000F1F700C0000083E00E9425018FE891E063
:1002E0000197F1F700C0000083E00E94250187EC30
:1002F00090E00197F1F700C0000082E00E94250124
:1003000087EC90E00197F1F700C000009FEF20E735
:1003100082E0915020408040E1F700C00000089545
:10032000CF93C82F2E9882958F700E9425018C2F15
:100330008F700E94250187EC90E00197F1F700C0D3
:100340000000CF910895CF93C82F2E9A82958F7079
:100350000E9425018C2F8F700E9425012E9887EC1A
:1003600090E00197F1F700C00000CF9108950F933E
:100370001F93CF93DF93EC0110E000E0FE010190AA
:100380000020E9F73197EC1BFD0B0E171F0728F033
:10039000DF91CF911F910F910895FE01E00FF11FA2
:1003A00080810E94A3010F5F1F4FE8CFCF93DF939F
:1003B000CDB7DEB7A0970FB6F894DEBF0FBECDBFA6
:1003C000AB01BE016F5F7F4F0E949B02CE01019681
:1003D0000E94B701A0960FB6F894DEBF0FBECDBF46
:1003E000DF91CF910895EF92FF920F931F93CF93D8
:1003F000DF93CDB7DEB728970FB6F894DEBF0FBEF8
:10040000CDBF7C018B01BA01C90128E0E5E3F5E02D
:10041000DE01119601900D922A95E1F74E155F05C8
:100420001CF0B701615071098017910714F0C801E1
:100430000197660F771F21E030E02C0F3D1F620F00
:10044000731FFB0120813181820F931F28960FB605
:10045000F894DEBF0FBECDBFDF91CF911F910F91FA
:10046000FF90EF900895CDB7DEB7C85ED3400FB6CA
:10047000F894DEBF0FBECDBF0E94C40085B7806870
:1004800085BF85B7806885BF0E94D0000E944B0160
:100490008CE00E94900181E00E94900182E00E9425
:1004A000900186E00E949001E3E2F1E041E050E03B
:1004B000A281B3818C9196819A0101C0220F9A95F5
:1004C000EAF7822B8C93379621E0EF33F20781F71E
:1004D0008DEEEDE4F1E0DE01119601900D928A952A
:1004E000E1F7FE01E251FF4F8BEF92E0DF019C014B
:1004F0001D9221503040E1F7CE0101967C0110E0C1
:1005000000E0980150E040E060E170E081E090E0C0
:100510000E94F30180680E949001D7018D917D01B6
:10052000811101C080E20E94A3010F5F1F4F0031C3
:10053000110539F7E1CF4532510520F4423010F072
:100540000C94A602FB011082CB010895BB274A3010
:1005500031F4992322F4BDE2909581959F4F0C943C
:10056000B202BB27FB015527AA27880F991FAA1F94
:10057000A41710F0A41B83955051B9F7A05DAA33BE
:1005800008F0A95DA193009779F7B111B193119289
:10059000CB010C94CB02DC01FC01672F7191772316
:1005A000E1F7329704C07C916D9370836291AE172E
:0A05B000BF07C8F30895F894FFCFC9
:1005BA002700280026000727002800260006240016
:1005CA002500230006240025002300052400250019
:1005DA00230004300031002F0007300031002F00C3
:1005EA0006300031002F0005300031002F00042DA5
:1005FA00002E002C0006300031002F00004C612034
:10060A0067756572726520636976696C65206661D3
:10061A006974207261676520656E747265206C2743
:10062A00456D706972652067616C61637469717583
:10063A0065206574206C27416C6C69616E63652066
:10064A00726562656C6C652E20436170747572C345
:10065A00A96520706172206C65732074726F757061
:10066A0065732064652063686F63206465206C2766
:10067A00456D706572657572206D656EC3A9657387
:10068A0020706172206C6520736F6D6272652065DF
:10069A007420696D7069746F7961626C6520446158
:1006AA00726B205661646F722C206C6120707269C3
:1006BA006E6365737365204C656961204F7267616B
:1006CA006E612064697373696D756C65206C6573FE
:1006DA0020706C616E73206465206C2745746F69A5
:1006EA006C65204E6F6972652E00000000000000E4
:1006FA0000000000000000000000000000000000F0
:10070A0000000000000000000000000000000000DF
:10071A0000000000000000000000000000000000CF
:10072A0000000000000000000000000000000000BF
:0E09EA00000000000000004000140054000057
:00000001FF
