:100000000C9456000C946B000C946B000C946B00D9
:100010000C946B000C946B000C946B000C946B00B4
:100020000C946B000C946B000C946B000C946B00A4
:100030000C946B000C946B000C946B000C946B0094
:100040000C946B000C946B000C946B000C946B0084
:100050000C946B000C946B000C946B000C946B0074
:100060000C946B000C946B000C946B000C946B0064
:100070000C946B000C946B000C946B000C946B0054
:100080000C946B000C946B000C946B000C946B0044
:100090000C946B000C946B000C946B000C946B0034
:1000A0000C946B000C946B000C946B0011241FBE1D
:1000B000CFEFDAE0DEBFCDBF11E0A0E0B1E0E6EACD
:1000C000F6E002C005900D92AE36B107D9F70E9456
:1000D0005C020C9451030C94000043E021E030E0FA
:1000E000E0914801F0914901808190914C01B90162
:1000F00001C0660F9A95EAF7862B80835FEF69E669
:1001000078E1515060407040E1F700C00000E0919C
:100110004801F0914901508180914C01B90102C020
:10012000660F771F8A95E2F7CB0180958523808340
:10013000E0914F01F0915001808190915301B901FC
:1001400001C0660F9A95EAF7862B80837FEF89E6D8
:1001500098E1715080409040E1F700C00000E091CC
:100160004F01F0915001508180915301B90102C0BB
:10017000660F771F8A95E2F7CB01809585238083F0
:10018000415009F0ADCF089585E18093C50080E12D
:100190008093C600E1E6F0E080E880831082089555
:1001A000E0914601F0914701208130914C0181E0BE
:1001B00090E0AC0101C0440F3A95EAF7242B20836C
:1001C000E0914D01F0914E0120813091530101C029
:1001D000880F3A95EAF7822B8083E7E0F1E021E08F
:1001E00030E0A081B1814C918681B90102C0660FD7
:1001F000771F8A95E2F7CB01809584238C93A281A7
:10020000B3818C919681A90101C0440F9A95EAF7B8
:10021000842B8C93379671E0EA32F70711F7EAE204
:10022000F1E026E431E061E070E0A081B1818C91E1
:100230009681AB0101C0440F9A95EAF7842B8C9309
:1002400037962E173F0789F70895EAE7F0E02081F7
:100250002760208320812F7D2083ACE7B0E02C91A4
:1002600020662C939C91907F982B9C938081806832
:100270008083089580917A00806480937A008091D1
:100280007A0086FDFCCF8091790090E0089528984F
:1002900083FF1BC05F9A82FF1AC05E9A81FF19C05C
:1002A0005D9A80FF18C05C9A85E08A95F1F700009E
:1002B000289A95E09A95F1F7000028988FE891E048
:1002C0000197F1F700C0000008955F98E4CF5E98B1
:1002D000E5CF5D98E6CF5C98E7CF549A559A569A49
:1002E000579A219A229A209A5C985D985E985F9816
:1002F00029982A9828982FEF83EF91E02150804089
:100300009040E1F700C0000083E00E9447018FE1C8
:100310009EE40197F1F700C0000083E00E944701CE
:100320008FE891E00197F1F700C0000083E00E94A0
:10033000470187EC90E00197F1F700C0000082E0F0
:100340000E94470187EC90E00197F1F700C00000A0
:100350009FEF20E782E0915020408040E1F700C00D
:1003600000000895CF93C82F299882958F700E941E
:1003700047018C2F8F700E94470187EC90E0019716
:10038000F1F700C00000CF910895CF93C82F299AAC
:1003900082958F700E9447018C2F8F700E944701B9
:1003A000299887EC90E00197F1F700C00000CF9109
:1003B00008950F931F93CF93DF93EC0110E000E0BB
:1003C000FE0101900020E9F73197EC1BFD0B0E17A1
:1003D0001F0728F0DF91CF911F910F910895FE0123
:1003E000E00FF11F80810E94C5010F5F1F4FE8CF12
:1003F000CF93DF93CDB7DEB7A0970FB6F894DEBFEB
:100400000FBECDBFAB01BE016F5F7F4F0E941103D6
:10041000CE0101960E94D901A0960FB6F894DEBFD6
:100420000FBECDBFDF91CF910895EF92FF920F9352
:100430001F93CF93DF93CDB7DEB728970FB6F8940D
:10044000DEBF0FBECDBF7C018B01BA01C90128E020
:10045000E4E5F1E0DE01119601900D922A95E1F7B5
:100460004E155F051CF0B7016150710980179107A7
:1004700014F0C8010197660F771F21E030E02C0FC0
:100480003D1F620F731FFB0120813181820F931F7B
:1004900028960FB6F894DEBF0FBECDBFDF91CF9187
:1004A0001F910F91FF90EF900895803118F48058BC
:1004B0000C94B2018055FCCF0E94C40085B78068BF
:1004C00085BF85B7806885BF0E94D0000E946D01FE
:1004D0008CE00E94B20181E00E94B20182E00E94A1
:1004E000B20186E00E94B2012FEF49E658E12150A7
:1004F00040405040E1F700C000008CE591E00E94D0
:10050000D901809106010E942501E0910001F0913E
:10051000010180819091060121E030E001C0220FAD
:100520009A95EAF7822B8083EAE2F1E041E050E01D
:10053000A281B3818C9196819A0101C0220F9A9574
:10054000EAF7822B8C93379681E0E634F80781F73F
:10055000CC24C394D12C0E943A01D82FC92F8CE10E
:100560000E9455026AE070E08D2F9C2F0E94F801D6
:100570008AE691E00E94D9019FEFA3ECB9E0915087
:10058000A040B040E1F700C00000CAE2D1E010E0B6
:1005900000E0EA81FB8120818E81A60102C0440F28
:1005A000551F8A95E2F7CA0180958223808387E0F0
:1005B000A82E81E0B82EF12CE12CD5011496ED91F6
:1005C000FC911597808190E016962C9102C095952C
:1005D00087952A95E2F780FD07C0C8018E0D9F1D03
:1005E0000F9711F40E946D00BFEFEB1AFB0AE7E0D2
:1005F000AE0EB11CF5E0EF16F104F9F6EA81FB81CD
:1006000080819E81960101C0220F9A95EAF7822B84
:10061000808327960B5F1F4F0431110509F0B9CF76
:100620009ACF4532510520F4423010F00C941C034F
:10063000FB011082CB010895BB274A3031F4992386
:1006400022F4BDE2909581959F4F0C942803BB271F
:10065000FB015527AA27880F991FAA1FA41710F07E
:10066000A41B83955051B9F7A05DAA3308F0A95D8A
:10067000A193009779F7B111B1931192CB010C942A
:100680004103DC01FC01672F71917723E1F7329779
:1006900004C07C916D9370836291AE17BF07C8F35D
:0606A0000895F894FFCF5D
:1006A600300031002F000127002800260007270010
:1006B6002800260006240025002300062400250025
:1006C60023000524002500230004300031002F00FC
:1006D60007300031002F0006300031002F000530B2
:1006E6000031002F00042D002E002C0006300031B2
:1006F600002F000000004000140054004D494449FA
:0E070600204B4559424F415244002020200014
:00000001FF
