:100000000C9456000C946B000C946B000C946B00D9
:100010000C946B000C946B000C946B000C946B00B4
:100020000C946B000C946B000C946B000C946B00A4
:100030000C946B000C946B000C946B000C946B0094
:100040000C946B000C946B000C946B000C946B0084
:100050000C946B000C946B000C946B000C946B0074
:100060000C946B000C946B000C946B000C946B0064
:100070000C946B000C946B000C946B000C946B0054
:100080000C946B000C946B000C946B000C946B0044
:100090000C946B000C946B000C946B000C946B0034
:1000A0000C946B000C946B000C946B0011241FBE1D
:1000B000CFEFDAE0DEBFCDBF11E0A0E0B1E0ECEFC2
:1000C000F5E002C005900D92A436B107D9F70E9461
:1000D00033020C94FC020C94000043E021E030E079
:1000E000E0914101F0914201808190914501B90177
:1000F00001C0660F9A95EAF7862B80835FEF69E669
:1001000078E1515060407040E1F700C00000E0919C
:100110004101F0914201508180914501B90102C035
:10012000660F771F8A95E2F7CB0180958523808340
:10013000E0914801F0914901808190914C01B90111
:1001400001C0660F9A95EAF7862B80837FEF89E6D8
:1001500098E1715080409040E1F700C00000E091CC
:100160004801F0914901508180914C01B90102C0D0
:10017000660F771F8A95E2F7CB01809585238083F0
:10018000415009F0ADCF089585E18093C50080E12D
:100190008093C600E1E6F0E080E880831082089555
:1001A000E0913F01F091400120813091450181E0D3
:1001B00090E0AC0101C0440F3A95EAF7242B20836C
:1001C000E0914601F0914701208130914C0101C03E
:1001D000880F3A95EAF7822B8083E0E0F1E021E096
:1001E00030E0A081B1814C918681B90102C0660FD7
:1001F000771F8A95E2F7CB01809584238C93A281A7
:10020000B3818C919681A90101C0440F9A95EAF7B8
:10021000842B8C93379671E0E332F70711F7E3E212
:10022000F1E02FE331E061E070E0A081B1818C91D9
:100230009681AB0101C0440F9A95EAF7842B8C9309
:1002400037962E173F0789F70895289883FF1BC01C
:100250005F9A82FF1AC05E9A81FF19C05D9A80FF83
:1002600018C05C9A85E08A95F1F70000289A95E01D
:100270009A95F1F7000028988FE891E00197F1F73F
:1002800000C0000008955F98E4CF5E98E5CF5D98C8
:10029000E6CF5C98E7CF549A559A569A579A219A86
:1002A000229A209A5C985D985E985F9829982A987F
:1002B00028982FEF83EF91E0215080409040E1F7A4
:1002C00000C0000083E00E9425018FE19EE40197B9
:1002D000F1F700C0000083E00E9425018FE891E063
:1002E0000197F1F700C0000083E00E94250187EC30
:1002F00090E00197F1F700C0000082E00E94250124
:1003000087EC90E00197F1F700C000009FEF20E735
:1003100082E0915020408040E1F700C00000089545
:10032000CF93C82F299882958F700E9425018C2F1A
:100330008F700E94250187EC90E00197F1F700C0D3
:100340000000CF910895CF93C82F299A82958F707E
:100350000E9425018C2F8F700E942501299887EC1F
:1003600090E00197F1F700C00000CF9108950F933E
:100370001F93CF93DF93EC0110E000E0FE010190AA
:100380000020E9F73197EC1BFD0B0E171F0728F033
:10039000DF91CF911F910F910895FE01E00FF11FA2
:1003A00080810E94A3010F5F1F4FE8CFCF93DF939F
:1003B000CDB7DEB7A0970FB6F894DEBF0FBECDBFA6
:1003C000AB01BE016F5F7F4F0E94BC02CE01019660
:1003D0000E94B701A0960FB6F894DEBF0FBECDBF46
:1003E000DF91CF910895EF92FF920F931F93CF93D8
:1003F000DF93CDB7DEB728970FB6F894DEBF0FBEF8
:10040000CDBF7C018B01BA01C90128E0EDE4F1E028
:10041000DE01119601900D922A95E1F74E155F05C8
:100420001CF0B701615071098017910714F0C801E1
:100430000197660F771F21E030E02C0F3D1F620F00
:10044000731FFB0120813181820F931F28960FB605
:10045000F894DEBF0FBECDBFDF91CF911F910F91FA
:10046000FF90EF9008950E94C40085B7806885BF13
:1004700085B7806885BF0E94D0000E944B018CE048
:100480000E94900181E00E94900182E00E94900110
:1004900086E00E9490012FEF49E658E1215040404C
:1004A0005040E1F700C0000085E591E00E94B701EF
:1004B0002FE331E0E3E2F1E061E070E0A281B3819B
:1004C0008C919681AB0101C0440F9A95EAF7842B79
:1004D0008C9337962E173F0789F7AA24A394B12C43
:1004E000C3E2D1E010E000E0EA81FB8120818E814F
:1004F000D50102C0AA0FBB1F8A95E2F7CD018095F6
:100500008223808380E0C82E81E0D82EF12CE12C5C
:10051000D6011496ED91FC911597808190E0169686
:100520002C9102C0959587952A95E2F780FD07C02A
:10053000C8018E0D9F1D0F9711F40E946D00BFEF33
:10054000EB1AFB0AE7E0CE0ED11CF5E0EF16F10442
:10055000F9F6EA81FB8180819E81950101C0220F1D
:100560009A95EAF7822B808327960B5F1F4F043101
:10057000110509F0B9CFB4CF4532510520F442300E
:1005800010F00C94C702FB011082CB010895BB2729
:100590004A3031F4992322F4BDE2909581959F4F22
:1005A0000C94D302BB27FB015527AA27880F991F5C
:1005B000AA1FA41710F0A41B83955051B9F7A05D92
:1005C000AA3308F0A95DA193009779F7B111B1930F
:1005D0001192CB010C94EC02DC01FC01672F7191AC
:1005E0007723E1F7329704C07C916D937083629119
:0C05F000AE17BF07C8F30895F894FFCFC2
:1005FC0027002800260007270028002600062400D4
:10060C0025002300062400250023000524002500D6
:10061C00230004300031002F0007300031002F0080
:10062C0006300031002F0005300031002F00042D62
:10063C00002E002C0006300031002F00000000407E
:10064C0000140054004D494449204B4559424F4138
:04065C005244000004
:00000001FF
