:10000000B1C00000CBC00000C9C00000C7C00000E4
:10001000C5C00000C3C00000C1C00000BFC00000D8
:10002000BDC00000BBC000000C946008B7C0000059
:10003000B5C00000B3C00000B1C00000AFC00000F8
:10004000ADC00000ABC00000A9C00000A7C0000008
:10005000A5C00000A3C00000A1C000009FC0000018
:100060009DC000009BC0000099C0000097C0000028
:1000700095C0000093C0000091C000008FC0000038
:100080008DC000008BC0000089C0000087C0000048
:1000900085C0000083C0000081C000007FC0000058
:1000A0007DC000007BC0000079C000001E034C0032
:1000B00055004600410020004D0049004400490021
:1000C0002000440065006D006F0000001A034C0022
:1000D00055004600410020004C006900620072009B
:1000E0006100720079000000040309040902650040
:1000F000020100C0320904000000010100000924CF
:1001000001000109000101090401000201030000CE
:100110000724010001410006240201010006240217
:100120000202000924030103010201000924030261
:100130000401010100090502024000050000052537
:1001400001010109058102400005000005250101AA
:10015000031201100100000008EB03482001000118
:100160000200010011241FBECFEFDAE0DEBFCDBFD9
:1001700011E0A0E0B1E0E6E1F9E102C005900D92E6
:10018000AA3FB107D9F722E0AAEFB1E001C01D9262
:10019000A532B207E1F703D00C94890C31CF85B7B3
:1001A000806885BF85B7806885BFC0D1CBD144D179
:1001B000809130011CD2E0912A01F0912B018081C5
:1001C0009091300121E030E001C0220F9A95EAF7CA
:1001D000822B808337D28BB18F7080618BB97894FA
:1001E0006FD20CD36CD40E94820AFACF289883FF76
:1001F0001BC05F9A82FF1AC05E9A81FF19C05D9A88
:1002000080FF18C05C9A85E08A95F1F70000289A73
:1002100095E09A95F1F7000028988FE891E0019712
:10022000F1F700C0000008955F98E4CF5E98E5CF35
:100230005D98E6CF5C98E7CF549A559A569A579AAC
:10024000219A229A209A5C985D985E985F982998E6
:100250002A9828982FEF83EF91E02150804090401A
:10026000E1F700C0000083E0C1DF8FE19EE4019769
:10027000F1F700C0000083E0B9DF8FE891E001975B
:10028000F1F700C0000083E0B1DF87EC90E0019758
:10029000F1F700C0000082E0A9DF87EC90E0019751
:1002A000F1F700C000009FEF20E782E0915020406E
:1002B0008040E1F700C000000895CF93C82F29982F
:1002C00082958F7093DF8C2F8F7090DF87EC90E09A
:1002D0000197F1F700C00000CF910895CF93C82F88
:1002E000299A82958F7082DF8C2F8F707FDF2998FB
:1002F00087EC90E00197F1F700C00000CF910895DE
:100300000F931F93CF93DF93EC0110E000E0FE0109
:1003100001900020E9F73197EC1BFD0B0E171F072A
:1003200028F0DF91CF911F910F910895FE01E00F0A
:10033000F11F8081D3DF0F5F1F4FE9CFCF93DF9392
:10034000CDB7DEB7A0970FB6F894DEBF0FBECDBF16
:10035000AB01BE016F5F7F4F0E944C0CCE01019636
:10036000CFDFA0960FB6F894DEBF0FBECDBFDF91F2
:10037000CF910895803110F480589FCF8055FDCFE4
:100380000F931F93CF93DF93CDB7DEB761970FB66F
:10039000F894DEBF0FBECDBF40E150E060E270E0F8
:1003A000CE0101960E94450C198A80E886DFCE01B5
:1003B0000196A6DF2FEF83EC99E02150804090401A
:1003C000E1F700C0000010E000E0ECECF1E090E0AC
:1003D00080E001962191A1E0B0E0AC0FBD1FA80F15
:1003E000B91F2C9308171907A4F780E866DFCE0120
:1003F000019686DF2FEF82E597E021508040904004
:10040000E1F700C000000F5F1F4F0D301105E9F646
:100410002FEF89E698E1215080409040E1F700C03D
:10042000000061960FB6F894DEBF0FBECDBFDF911E
:10043000CF911F910F910895FFDE8CE03EDF81E0A8
:100440003CDF82E03ADF86E038DF2FEF82E597E09D
:10045000215080409040E1F700C0000091DF81E032
:100460002CDF2FEF82E597E0215080409040E1F7AC
:1004700000C0000080E821DFE091FC018E2F90E0B9
:10048000FC01EE0FFF1FE80FF91FE258FE4F8181BC
:10049000928136DF8DE811DF8AED91E031DF80EC6B
:1004A0000CDF8EED91E02CDF6AE070E090E080E000
:1004B00045DF8BEC02DF83EE91E022DF6AE070E043
:1004C000809124019091250139CF9C01DA01832F7D
:1004D00099278230910529F18330910549F00197E0
:1004E00091F482E190E021E531E02D933C93089571
:1004F000C9019927213061F08230910579F0E8EE49
:10050000F0E0892B39F090E080E030E020E0EDCFA2
:10051000ECECF0E0849190E09F01E7CFECEAF0E0B2
:10052000F9CF85E690E02CEE30E0DFCF85E18093D7
:10053000C50080E18093C600E1E6F0E080E88083BA
:1005400010820895E0917001F09171012081309145
:10055000760181E090E0AC0101C0440F3A95EAF7E2
:10056000242B2083E0917701F09178012081309154
:100570007D0101C0880F3A95EAF7822B8083E1E381
:10058000F1E021E030E0A081B1814C918681B90198
:1005900002C0660F771F8A95E2F7CB01809584230E
:1005A0008C93A281B3818C919681A90101C0440FE3
:1005B0009A95EAF7842B8C93379671E0E435F70728
:1005C00011F7E4E5F1E020E731E061E070E0A081BF
:1005D000B1818C919681AB0101C0440F9A95EAF7E5
:1005E000842B8C9337962E173F0789F70895EAE7F7
:1005F000F0E020812760208320812F7D2083ACE7DD
:10060000B0E02C9120662C939C91907F982B9C932A
:10061000808180688083089580917A0080648093CF
:100620007A0080917A0086FDFCCF8091790090E07D
:100630000895869FC001112466E270E00E941E0C9E
:10064000862F089584B7877F84BF0FB6F894A89546
:1006500080916000886180936000109260000FBEFE
:1006600080E890E00FB6F894809361009093610069
:100670000FBE8AB1806F8AB98BB18F708BB903C5F9
:100680008BB18F70806A8BB908958BB18F70806148
:100690008BB90895CF9342E361E881E030D4C82F4D
:1006A00042E360E882E02BD4882319F090E6C11180
:1006B00001C090E98BB18F70892B8BB9CF910895D0
:1006C0008F929F92AF92BF92CF92DF92EF92FF9262
:1006D0000F931F93CF93DF93E4E5F1E090E080E088
:1006E00041E050E0992493946FEF7FEF8824839446
:1006F000A281B3811C9126817A0102C0EE0CFF1CFD
:100700002A95E2F79701209521232C9301E311E02C
:100710009C0123503E4F7901B0E0A0E06D01C80E6E
:10072000D91EE8012C813D81E9012881E701B990BA
:100730007E0130E0E801AE8002C035952795AA948D
:10074000E2F720FD35C0B1100FC0970121503109EB
:10075000E9019882D0922701C09226017093290165
:1007600060932801809217021196095F1F4FA530F0
:10077000B105A1F6A281B3812C9136818A0101C015
:10078000000F3A95EAF7202B2C9337960596843183
:10079000910509F0ADCFDF91CF911F910F91FF909F
:1007A000EF90DF90CF90BF90AF909F908F90089583
:1007B000BB20D1F2970121503109E9011882D09272
:1007C0002901C09228017093270160932601CACFA6
:1007D00080910D02882321F080910C028170089590
:1007E00080E0FCCF80910D02811106C080910C0247
:1007F00091E089278170089580E0FCCF8091FB0112
:10080000882319F0813041F00895E2DF8823E9F070
:1008100081E08093FB010895E5DF8823B1F08091AA
:10082000FA0191E0811190E09093FA0181110EC0DC
:100830008DE0A0DD88EE91E063DD1092FB018FEF8B
:100840009FEF909329018093280108958DE092DD18
:100850008AED91E0F1CF9C01E0E0F1E090E080E0F2
:1008600040814217130641F4880F991FFC01E050A4
:10087000FF4F818190E00895019632968231910573
:1008800079F78FEF9FEF0895E0E0F1E081818E5ED0
:100890008183329681E0E432F807C1F78091240128
:1008A00090912501873091052CF4019690932501B4
:1008B000809324010895E0E0F1E0818182518183F9
:1008C000329681E0E432F807C1F7809124019091DB
:1008D0002501823091052CF001979093250180939A
:1008E00024010895EF92FF920F931F93CF93DF930C
:1008F00000D000D0CDB7DEB78091280190912901BA
:100900008031910509F0B2C080911702882309F463
:100910003DC08091FB01813009F438C08091FA011B
:1009200081110BC0B1DF8FE125DD6AE070E08091BD
:1009300024019091250102DD21C0813029F58091AB
:10094000FC01873020F48F5F8093FC0102C010927D
:10095000FC0180E00FDD8CEE91E0D2DC80E00ADD6E
:10096000E091FC018E2F90E0FC01EE0FFF1FE80FDD
:10097000F91FE258FE4F81819281C2DC8FEF9FEF19
:1009800090932901809328011092170245DE8983F4
:100990009A832DEC3CEC4CE45FE360911102709182
:1009A00012028091130290911402E5D67B018C0112
:1009B00089819A819927092E000CAA0BBB0B898388
:1009C0009A83AB83BC83BC01CD0149D62CEC3CECB3
:1009D0004CE45EE369837A838B839C8369817A81AB
:1009E0008B819C81C8D69B01AC01E982FA820B8382
:1009F0001C8369817A818B819C819FD5362F272F1B
:100A0000462F572FBC01409311025093120260935E
:100A100013027093140239832A838B839C83698128
:100A20007A818B819C81EDD5862F673208F086E232
:100A3000909116029817C1F18093160264E6F9DDD1
:100A4000898384E197DC6AE070E0A9818A2F90E0D5
:100A500075DC87EF91E00F900F900F900F90DF9172
:100A6000CF911F910F91FF90EF904ACC0F9709F013
:100A70008DCF80911702882309F488CF8091FB01E4
:100A8000813009F483CF8091FA01811102C013DF14
:100A90004ACF813009F078CF8091FC01882311F092
:100AA000815052CF87E050CF0F900F900F900F9052
:100AB000DF91CF911F910F91FF90EF900895FF92DA
:100AC0000F931F93CF93DF9300D000D0CDB7DEB745
:100AD00009DF80911C02843009F08EC081E0809390
:100AE000E9008091E80080FF5DC06FE78091160209
:100AF000A0DDF82E80912601909127018F3F980765
:100B000009F484C09C012F5031092230310508F4CA
:100B10007DC020911702222309F478C09CDE109238
:100B2000170290E900912801109129010F3F100749
:100B300079F098012F5031092230310548F0209189
:100B40001702222329F0C80186DE1092170290E8CE
:100B50002091FA01213051F40F5011090230110592
:100B600028F420911702211101C090EC2091160267
:100B700030911502231709F44CC0209315028BE025
:100B8000898380EB8A838EE08B83FC8250E040E097
:100B900064E070E0CE01019661D08091E8008E772C
:100BA0008093E80082E08093E9008091E80082FF72
:100BB00023C050E040E064E070E0CE0101969CD09C
:100BC0008981893009F047C08C81882309F443C0AA
:100BD0008B8190E2813408F090E18BB18F70892B8A
:100BE0008BB99091F3008091F200892B29F48091C8
:100BF000E8008B778093E8000F900F900F900F9094
:100C0000DF91CF911F910F91FF90089580E090E0C8
:100C100089CF903911F0903849F4292F22952F70FF
:100C200029839A838B8380E48C83B0CF903C09F036
:100C3000B9CF8CE089839A83E091FC018E2F90E0FC
:100C4000FC01EE0FFF1FE80FF91FE258FE4F8081F5
:100C50008B831C829BCF8BB18F70C2CFAF92BF9220
:100C6000CF92DF92FF920F931F93CF93DF936C018C
:100C7000EB018A0197D1F82E811124C001151105CD
:100C800039F0F80180819181C81BD90BC80ED91E9B
:100C9000B12CA12C2097B1F08091E80085FD22C0F5
:100CA0008091E8008E778093E8002CD4011511051F
:100CB000A1F0F80180819181A80EB91EB182A082B5
:100CC00085E0F82E8F2DDF91CF911F910F91FF902E
:100CD000DF90CF90BF90AF90089564D18823D1F278
:100CE000F82EF0CFF60181916F018093F1002197EA
:100CF000FFEFAF1ABF0ACECFAF92BF92CF92DF9273
:100D0000FF920F931F93CF93DF936C01EB018A0146
:100D100049D1F82E811124C00115110539F0F801CF
:100D200080819181C81BD90BC80ED91EB12CA12C72
:100D30002097B1F08091E80085FD22C08091E80005
:100D40008B778093E800DED301151105A1F0F8013F
:100D500080819181A80EB91EB182A08285E0F82E13
:100D60008F2DDF91CF911F910F91FF90DF90CF904A
:100D7000BF90AF90089516D18823D1F2F82EF0CF0E
:100D80008091F100F60181936F012197FFEFAF1A77
:100D9000BF0ACECFFC01CB01209123023091240267
:100DA0002617370790F0009729F42091E8002E7756
:100DB0002093E80040E0009751F4411108C0809171
:100DC000E80082FF31C080E00895C901F3CF20918F
:100DD0001C022223A9F12530A9F12091E80023FD6E
:100DE0002DC02091E80022FDEACF2091E80020FFED
:100DF000E2CF3091F3002091F200009719F02830F3
:100E0000310558F041E02830310509F040E02091EB
:100E1000E8002E772093E800CECF41914093F10077
:100E200001972F5F3F4FE9CF80911C02882341F04B
:100E3000853041F08091E80083FFC1CF81E00895C3
:100E400082E0089583E00895FC01CB012091230204
:100E5000309124022617370790F0009729F420914B
:100E6000E8002E772093E80040E0009751F441110C
:100E700008C08091E80082FF32C080E00895C90177
:100E8000F3CF20911C022223B1F12530B1F1209142
:100E9000E80023FD2EC02091E80022FDEACF20913A
:100EA000E80020FFE2CF3091F3002091F20000979C
:100EB00019F02830310558F041E02830310509F0AB
:100EC00040E02091E8002E772093E800CECF4491B7
:100ED0004093F100319601972F5F3F4FE8CF80910B
:100EE0001C02882341F0853041F08091E80083FFA7
:100EF000C0CF81E0089582E0089583E00895982F9F
:100F0000973028F08F708093E90081E008959093E6
:100F1000E900242F762F50E0981731F07091EC0003
:100F20002091ED005091F00021FD02C09F5FE8CFBD
:100F30003091EB003E7F3093EB003091ED003D7F30
:100F40003093ED003091EB0031603093EB00709303
:100F5000EC002093ED005093F0002091EE0027FD6F
:100F6000E5CF80E0089580911D0287FF13C0809136
:100F7000E80082FF06C08091E8008B778093E8004C
:100F800004C080911C028111F2CF089580911C024F
:100F90008823D9F38091E80080FFF8CF8091E800A2
:100FA0008E77ECCF2091E4003091E50095E6A90121
:100FB0002091EC00822F817020FF06C08091E80014
:100FC00080FF06C080E008952091E80022FD1AC04D
:100FD00080911C02882389F0853089F08091EB0094
:100FE00085FD0FC02091E4003091E50042175307C2
:100FF000F9F29150E1F684E0089582E0089583E0EB
:10100000089581E008950F931F93CF93DF934BD002
:1010100052D0C8EDD0E088818F778883888180683E
:10102000888388818F7D888319BC10921C0210925E
:10103000180210921A021092190200EE10E0F80144
:1010400080818B7F808388818160888342E060E03B
:1010500080E055DFE1EEF0E080818E7F8083E2EE7C
:10106000F0E0808181608083808188608083F801E6
:1010700080818E7F8083888180618883DF91CF919A
:101080001F910F910895E8EDF0E080818F7E8083BD
:10109000E7EDF0E080818160808384E082BF81E0C1
:1010A00080931B02B0CFE8EDF0E080818E7F8083DB
:1010B0001092E20008951092DA001092E100089573
:1010C0001F920F920FB60F9211242F933F934F93BD
:1010D0005F936F937F938F939F93AF93BF93EF93A0
:1010E000FF938091E10082FF0AC08091E20082FFBD
:1010F00006C08091E1008B7F8093E10002D2809155
:10110000DA0080FF18C08091D80080FF14C0809161
:10111000DA008E7F8093DA008091D90080FF8AC048
:1011200080E189BD82E189BD09B400FEFDCF81E087
:1011300080931C02A5DA8091E10080FF18C08091A5
:10114000E20080FF14C08091E2008E7F8093E20075
:101150008091E20080618093E2008091D8008062FB
:101160008093D80019BC85E080931C02CAD180917D
:10117000E10084FF28C08091E20084FF24C080E168
:1011800089BD82E189BD09B400FEFDCF8091D80000
:101190008F7D8093D8008091E1008F7E8093E10065
:1011A0008091E2008F7E8093E2008091E200816076
:1011B0008093E20080911802882309F440C084E003
:1011C00080931C029ED18091E10083FF22C0809118
:1011D000E20083FF1EC08091E100877F8093E100E1
:1011E00082E080931C02109218028091E1008E7FB1
:1011F0008093E1008091E2008E7F8093E2008091F5
:10120000E20080618093E20042E060E080E077DE0F
:1012100078D1FF91EF91BF91AF919F918F917F9185
:101220006F915F914F913F912F910F900FBE0F9053
:101230001F90189519BC10921C0227DA7CCF809160
:10124000E30087FD02C081E0BBCF83E0B9CF1F93ED
:10125000CF93DF93CDB7DEB7AA970FB6F894DEBF72
:101260000FBECDBF8DE192E0FC0101962091F1000F
:10127000208322E085329207B9F743D18091E800BC
:1012800083FF10C080911D0290911E02953009F4D9
:10129000C2C000F5292F2D7F213009F489C0992380
:1012A00009F45EC08091E80083FF0AC08091E800E5
:1012B000877F8093E8008091EB0080628093EB0051
:1012C000AA960FB6F894DEBF0FBECDBFDF91CF91C7
:1012D0001F910895983009F4D5C0993009F4DFC002
:1012E000963001F780588230E8F680911F02909185
:1012F00020028C3D23E0920709F0AFC083E08A838F
:101300008AE289834FB7F894DE01139620E03EE02D
:1013100051E2E32FF0E050935700E49120FF03C027
:10132000E295EF703F5FEF708E2F90E0EA3008F4A7
:1013300092C0C7968D939D932F5F243151F74FBF75
:101340008091E800877F8093E8006AE270E0CE0138
:10135000019620DD8091E8008B778093E800A2CF92
:10136000803899F0823809F09DCF809121028F70EA
:10137000873008F097CF8093E9008091EB0085FBE0
:10138000882780F91092E90006C080911902909197
:101390001A02911182609091E800977F9093E80083
:1013A0008093F1001092F1008091E8008E77A5C043
:1013B000882309F492C0823009F074CF80911F0213
:1013C000811196C0809121028F702FEF280F263057
:1013D00008F068CF8093E9002091EB0020FF88C0DF
:1013E000933031F48091EB0080628093EB0080C0F9
:1013F0009091EB0090619093EB0021E030E001C010
:10140000220F8A95EAF72093EA001092EA00809171
:10141000EB008860EACF811145CF10911F021F7742
:101420008091E3008078812B8093E3008091E80035
:10143000877F8093E80097DD8091E80080FFFCCFF4
:101440008091E30080688093E30082E0111183E0E3
:1014500080931C0227CFC0966DCF609121027091BE
:101460002202AE014F5F5F4F30D8BC01892B09F4D7
:1014700019CF8091E800877F8093E80089819A8165
:10148000E3DC68CF803809F00DCF8091E800877FDA
:101490008093E800809118028093F10085CF81113C
:1014A00001CF90911F02923008F0FCCE8091E800AD
:1014B000877F8093E8009093180255DD8091180291
:1014C000882311F084E005C08091E30087FDFACF06
:1014D00081E080931C02DED8E5CE80911F0281302E
:1014E00009F0E0CE81E0933009F080E080931A02A9
:1014F0001092E9008091E800877F8093E80033DD57
:10150000D1CE0895CF9380911C02882399F0C09189
:10151000E900CF709091EC00892F817090FD80E8F8
:10152000C82B1092E9008091E80083FD90DECF7017
:10153000C093E900CF9108955058BB27AA270ED039
:10154000E0C0D1D030F0D6D020F031F49F3F11F47C
:101550001EF4C6C00EF4E095E7FBBCC0E92FE2D054
:1015600080F3BA17620773078407950718F071F4C0
:101570009EF5FAC00EF4E0950B2EBA2FA02D0B01AC
:10158000B90190010C01CA01A0011124FF27591BC8
:1015900099F0593F50F4503E68F11A16F040A22FCE
:1015A000232F342F4427585FF3CF4695379527953F
:1015B000A795F0405395C9F77EF41F16BA0B620B3E
:1015C000730B840BBAF09150A1F0FF0FBB1F661F85
:1015D000771F881FC2F70EC0BA0F621F731F841FC8
:1015E00048F4879577956795B795F7959E3F08F0EE
:1015F000B3CF9395880F08F09927EE0F97958795AD
:10160000089598D088F09F5790F0B92F9927B75137
:10161000A0F0D1F0660F771F881F991F1AF0BA95B6
:10162000C9F712C0B13081F09FD0B1E008959CC0DD
:10163000672F782F8827B85F39F0B93FCCF38695AC
:1016400077956795B395D9F73EF490958095709509
:1016500061957F4F8F4F9F4F0895E89409C097FB86
:101660003EF490958095709561957F4F8F4F9F4F79
:101670009923A9F0F92F96E9BB279395F6958795BD
:1016800077956795B795F111F8CFFAF4BB0F11F480
:1016900060FF1BC06F5F7F4F8F4F9F4F16C0882327
:1016A00011F096E911C0772321F09EE8872F762F5D
:1016B00005C0662371F096E8862F70E060E02AF09E
:1016C0009A95660F771F881FDAF7880F969587958A
:1016D00097F9089597F99F6780E870E060E00895B2
:1016E0009FEF80EC089500240A941616170618063A
:1016F0000906089500240A94121613061406050616
:101700000895092E0394000C11F4882352F0BB0FA6
:1017100040F4BF2B11F460FF04C06F5F7F4F8F4F09
:101720009F4F089557FD9058440F551F59F05F3F44
:1017300071F04795880F97FB991F61F09F3F79F0F3
:1017400087950895121613061406551FF2CF469575
:10175000F1DF08C0161617061806991FF1CF8695F7
:101760007105610508940895E894BB2766277727DB
:10177000CB0197F908950BD0C4CFB5DF28F0BADFBD
:1017800018F0952309F0A6CFABCF1124EECFCADF16
:10179000A0F3959FD1F3950F50E0551F629FF00184
:1017A000729FBB27F00DB11D639FAA27F00DB11DDD
:1017B000AA1F649F6627B00DA11D661F829F222766
:1017C000B00DA11D621F739FB00DA11D621F839FED
:1017D000A00D611D221F749F3327A00D611D231FC3
:1017E000849F600D211D822F762F6A2F11249F5711
:1017F00050408AF0E1F088234AF0EE0FFF1FBB1F34
:10180000661F771F881F91505040A9F79E3F5105D2
:1018100070F060CFAACF5F3FECF3983EDCF3869583
:1018200077956795B795F795E7959F5FC1F7FE2B7D
:10183000880F911D9695879597F9089597FB072E28
:1018400016F4009406D077FD08D00BD007FC05D025
:101850003EF4909581959F4F0895709561957F4FC7
:101860000895AA1BBB1B51E107C0AA1FBB1FA617E7
:10187000B70710F0A61BB70B881F991F5A95A9F739
:1018800080959095BC01CD010895DC0101C06D9358
:1018900041505040E0F708954532510518F4423068
:1018A00008F004C0FB011082CB010895BB274A3029
:1018B00031F4992322F4BDE2909581959F4F01C0A8
:1018C000BB27FB015527AA27880F991FAA1FA4171A
:1018D00010F0A41B83955051B9F7A05DAA3308F00E
:1018E000A95DA193009779F7B111B1931192CB0142
:1018F00000C0DC01FC01672F71917723E1F732977B
:1019000004C07C916D9370836291AE17BF07C8F3DA
:061910000895F894FFCFDA
:10191600043C033D013E023F0040094108420743A3
:10192600064405450E460D470C480B490A4A134B1B
:10193600124C114D0300FFFFFFFF300031002F0056
:101946000127002800260007270028002600062475
:101956000025002300062400250023000524002579
:1019660000230004300031002F0007300031002F23
:101976000006300031002F0005300031002F000432
:101986002D002E002C0006300031002F000000969E
:10199600010B9C0118A70121AE0128B30138BA0139
:1019A6005AC20176C6015069616E6F005065726356
:1019B600757373696F6E0047756974617200426171
:1019C60073730056696F6C696E005472756D70653D
:1019D6007400506164004472756D73004D4944494A
:1019E600204B6579626F617264004F435400566FF5
:1019F6006C3A004F63743A00494E53002020202071
:0A1A060020202020202020202000B6
:00000001FF
